{
  "contractName": "TheNextBlock",
  "abi": [
    {
      "constant": true,
      "inputs": [],
      "name": "getBalance",
      "outputs": [
        {
          "name": "",
          "type": "uint256"
        }
      ],
      "payable": false,
      "stateMutability": "view",
      "type": "function"
    },
    {
      "constant": false,
      "inputs": [
        {
          "name": "_miner",
          "type": "address"
        }
      ],
      "name": "placeBet",
      "outputs": [],
      "payable": true,
      "stateMutability": "payable",
      "type": "function"
    },
    {
      "constant": false,
      "inputs": [
        {
          "name": "newAmount",
          "type": "uint256"
        }
      ],
      "name": "changeAllowedBetAmount",
      "outputs": [],
      "payable": false,
      "stateMutability": "nonpayable",
      "type": "function"
    },
    {
      "constant": true,
      "inputs": [
        {
          "name": "",
          "type": "address"
        }
      ],
      "name": "playersStorage",
      "outputs": [
        {
          "name": "balance",
          "type": "uint256"
        },
        {
          "name": "lastBlock",
          "type": "uint256"
        }
      ],
      "payable": false,
      "stateMutability": "view",
      "type": "function"
    },
    {
      "constant": false,
      "inputs": [],
      "name": "withdrawMyFunds",
      "outputs": [],
      "payable": false,
      "stateMutability": "nonpayable",
      "type": "function"
    },
    {
      "constant": true,
      "inputs": [],
      "name": "getMyBalance",
      "outputs": [
        {
          "name": "",
          "type": "uint256"
        }
      ],
      "payable": false,
      "stateMutability": "view",
      "type": "function"
    },
    {
      "constant": false,
      "inputs": [],
      "name": "withdrawOwnersFunds",
      "outputs": [],
      "payable": false,
      "stateMutability": "nonpayable",
      "type": "function"
    },
    {
      "constant": true,
      "inputs": [],
      "name": "allowedBetAmount",
      "outputs": [
        {
          "name": "",
          "type": "uint256"
        }
      ],
      "payable": false,
      "stateMutability": "view",
      "type": "function"
    },
    {
      "constant": true,
      "inputs": [],
      "name": "getMyGuessCount",
      "outputs": [
        {
          "name": "",
          "type": "uint8"
        }
      ],
      "payable": false,
      "stateMutability": "view",
      "type": "function"
    },
    {
      "constant": true,
      "inputs": [
        {
          "name": "playerAddr",
          "type": "address"
        }
      ],
      "name": "getPlayersGuessCount",
      "outputs": [
        {
          "name": "",
          "type": "uint8"
        }
      ],
      "payable": false,
      "stateMutability": "view",
      "type": "function"
    },
    {
      "constant": true,
      "inputs": [],
      "name": "requiredPoints",
      "outputs": [
        {
          "name": "",
          "type": "uint8"
        }
      ],
      "payable": false,
      "stateMutability": "view",
      "type": "function"
    },
    {
      "constant": true,
      "inputs": [],
      "name": "prizePool",
      "outputs": [
        {
          "name": "",
          "type": "uint256"
        }
      ],
      "payable": false,
      "stateMutability": "view",
      "type": "function"
    },
    {
      "constant": true,
      "inputs": [
        {
          "name": "",
          "type": "address"
        }
      ],
      "name": "playersPoints",
      "outputs": [
        {
          "name": "",
          "type": "uint8"
        }
      ],
      "payable": false,
      "stateMutability": "view",
      "type": "function"
    },
    {
      "constant": true,
      "inputs": [],
      "name": "getPrizePool",
      "outputs": [
        {
          "name": "",
          "type": "uint256"
        }
      ],
      "payable": false,
      "stateMutability": "view",
      "type": "function"
    },
    {
      "constant": true,
      "inputs": [],
      "name": "owner",
      "outputs": [
        {
          "name": "balance",
          "type": "uint256"
        },
        {
          "name": "addr",
          "type": "address"
        }
      ],
      "payable": false,
      "stateMutability": "view",
      "type": "function"
    },
    {
      "constant": true,
      "inputs": [
        {
          "name": "playerAddr",
          "type": "address"
        }
      ],
      "name": "getPlayersWonBlocks",
      "outputs": [
        {
          "name": "",
          "type": "uint256[]"
        }
      ],
      "payable": false,
      "stateMutability": "view",
      "type": "function"
    },
    {
      "constant": false,
      "inputs": [
        {
          "name": "newOwner",
          "type": "address"
        }
      ],
      "name": "changeOwner",
      "outputs": [],
      "payable": false,
      "stateMutability": "nonpayable",
      "type": "function"
    },
    {
      "constant": true,
      "inputs": [],
      "name": "ownerProfitPercent",
      "outputs": [
        {
          "name": "",
          "type": "uint8"
        }
      ],
      "payable": false,
      "stateMutability": "view",
      "type": "function"
    },
    {
      "constant": true,
      "inputs": [],
      "name": "prizePoolPercent",
      "outputs": [
        {
          "name": "",
          "type": "uint8"
        }
      ],
      "payable": false,
      "stateMutability": "view",
      "type": "function"
    },
    {
      "constant": true,
      "inputs": [],
      "name": "getMyWonBlocks",
      "outputs": [
        {
          "name": "",
          "type": "uint256[]"
        }
      ],
      "payable": false,
      "stateMutability": "view",
      "type": "function"
    },
    {
      "constant": true,
      "inputs": [
        {
          "name": "playerAddr",
          "type": "address"
        }
      ],
      "name": "getPlayersBalance",
      "outputs": [
        {
          "name": "",
          "type": "uint256"
        }
      ],
      "payable": false,
      "stateMutability": "view",
      "type": "function"
    },
    {
      "constant": true,
      "inputs": [],
      "name": "getOwnersBalance",
      "outputs": [
        {
          "name": "",
          "type": "uint256"
        }
      ],
      "payable": false,
      "stateMutability": "view",
      "type": "function"
    },
    {
      "constant": false,
      "inputs": [
        {
          "name": "newRequiredPoints",
          "type": "uint8"
        }
      ],
      "name": "changeRequiredPoints",
      "outputs": [],
      "payable": false,
      "stateMutability": "nonpayable",
      "type": "function"
    },
    {
      "inputs": [],
      "payable": false,
      "stateMutability": "nonpayable",
      "type": "constructor"
    },
    {
      "payable": true,
      "stateMutability": "payable",
      "type": "fallback"
    },
    {
      "anonymous": false,
      "inputs": [
        {
          "indexed": false,
          "name": "sender",
          "type": "address"
        },
        {
          "indexed": false,
          "name": "value",
          "type": "uint256"
        },
        {
          "indexed": false,
          "name": "betOnMiner",
          "type": "address"
        },
        {
          "indexed": false,
          "name": "miner",
          "type": "address"
        },
        {
          "indexed": false,
          "name": "balance",
          "type": "uint256"
        }
      ],
      "name": "BetReceived",
      "type": "event"
    },
    {
      "anonymous": false,
      "inputs": [
        {
          "indexed": false,
          "name": "sender",
          "type": "address"
        },
        {
          "indexed": false,
          "name": "value",
          "type": "uint256"
        },
        {
          "indexed": false,
          "name": "rest",
          "type": "uint256"
        }
      ],
      "name": "GivingBackTheRest",
      "type": "event"
    },
    {
      "anonymous": false,
      "inputs": [
        {
          "indexed": false,
          "name": "winner",
          "type": "address"
        }
      ],
      "name": "Jackpot",
      "type": "event"
    }
  ],
  "bytecode": "0x6060604052662386f26fc100006002556005600360006101000a81548160ff021916908360ff160217905550600a600360016101000a81548160ff021916908360ff160217905550605a600360026101000a81548160ff021916908360ff1602179055506000600455341561007357600080fd5b33600060010160006101000a81548173ffffffffffffffffffffffffffffffffffffffff021916908373ffffffffffffffffffffffffffffffffffffffff160217905550611454806100c66000396000f300606060405260043610610133576000357c0100000000000000000000000000000000000000000000000000000000900463ffffffff16806312065fe014610135578063309968971461015e57806334231cbd1461018c57806340d3d25a146101af5780634935e740146102035780634c7389091461021857806352c5d892146102415780635352aadb14610256578063545b4a011461027f57806356e71daa146102ae5780636e12b46e14610301578063719ce73e146103305780637c22232a14610359578063884bf67c146103ac5780638da5cb5b146103d55780639271e1ac14610431578063a6f9dae1146104bf578063c0036137146104f8578063cf00d4b914610527578063d23f7b0214610556578063d3c18378146105c0578063ee1971ea1461060d578063f7099d7914610636575b005b341561014057600080fd5b61014861065c565b6040518082815260200191505060405180910390f35b61018a600480803573ffffffffffffffffffffffffffffffffffffffff1690602001909190505061067b565b005b341561019757600080fd5b6101ad6004808035906020019091905050610c74565b005b34156101ba57600080fd5b6101e6600480803573ffffffffffffffffffffffffffffffffffffffff16906020019091905050610cdd565b604051808381526020018281526020019250505060405180910390f35b341561020e57600080fd5b610216610d01565b005b341561022357600080fd5b61022b610dde565b6040518082815260200191505060405180910390f35b341561024c57600080fd5b610254610e28565b005b341561026157600080fd5b610269610efc565b6040518082815260200191505060405180910390f35b341561028a57600080fd5b610292610f02565b604051808260ff1660ff16815260200191505060405180910390f35b34156102b957600080fd5b6102e5600480803573ffffffffffffffffffffffffffffffffffffffff16906020019091905050610f56565b604051808260ff1660ff16815260200191505060405180910390f35b341561030c57600080fd5b610314610fac565b604051808260ff1660ff16815260200191505060405180910390f35b341561033b57600080fd5b610343610fbf565b6040518082815260200191505060405180910390f35b341561036457600080fd5b610390600480803573ffffffffffffffffffffffffffffffffffffffff16906020019091905050610fc5565b604051808260ff1660ff16815260200191505060405180910390f35b34156103b757600080fd5b6103bf610fe5565b6040518082815260200191505060405180910390f35b34156103e057600080fd5b6103e8610fef565b604051808381526020018273ffffffffffffffffffffffffffffffffffffffff1673ffffffffffffffffffffffffffffffffffffffff1681526020019250505060405180910390f35b341561043c57600080fd5b610468600480803573ffffffffffffffffffffffffffffffffffffffff16906020019091905050611021565b6040518080602001828103825283818151815260200191508051906020019060200280838360005b838110156104ab578082015181840152602081019050610490565b505050509050019250505060405180910390f35b34156104ca57600080fd5b6104f6600480803573ffffffffffffffffffffffffffffffffffffffff169060200190919050506110c1565b005b341561050357600080fd5b61050b611167565b604051808260ff1660ff16815260200191505060405180910390f35b341561053257600080fd5b61053a61117a565b604051808260ff1660ff16815260200191505060405180910390f35b341561056157600080fd5b61056961118d565b6040518080602001828103825283818151815260200191508051906020019060200280838360005b838110156105ac578082015181840152602081019050610591565b505050509050019250505060405180910390f35b34156105cb57600080fd5b6105f7600480803573ffffffffffffffffffffffffffffffffffffffff1690602001909190505061122b565b6040518082815260200191505060405180910390f35b341561061857600080fd5b610620611277565b6040518082815260200191505060405180910390f35b341561064157600080fd5b61065a600480803560ff16906020019091905050611283565b005b60003073ffffffffffffffffffffffffffffffffffffffff1631905090565b600254341015151561068c57600080fd5b600254341115610760577f60a1c73b62c12135eb5254f9cf0a2ed14e4cbf964571175bf665979a2ca29ade33346106c534600254611300565b604051808473ffffffffffffffffffffffffffffffffffffffff1673ffffffffffffffffffffffffffffffffffffffff168152602001838152602001828152602001935050505060405180910390a13373ffffffffffffffffffffffffffffffffffffffff166108fc61073a34600254611300565b9081150290604051600060405180830381858888f19350505050151561075f57600080fd5b5b6000600560003373ffffffffffffffffffffffffffffffffffffffff1673ffffffffffffffffffffffffffffffffffffffff1681526020019081526020016000209050438160020154141515156107b657600080fd5b4381600201819055507f538de54f1eb04ae79fcc92b23af2edcf028d3f9ac867badcddfbad5e78fc8e79333484413073ffffffffffffffffffffffffffffffffffffffff1631604051808673ffffffffffffffffffffffffffffffffffffffff1673ffffffffffffffffffffffffffffffffffffffff1681526020018581526020018473ffffffffffffffffffffffffffffffffffffffff1673ffffffffffffffffffffffffffffffffffffffff1681526020018373ffffffffffffffffffffffffffffffffffffffff1673ffffffffffffffffffffffffffffffffffffffff1681526020018281526020019550505050505060405180910390a16108e26108cf600254600360019054906101000a900460ff16611319565b600080015461134f90919063ffffffff16565b50610912610901600254600360029054906101000a900460ff16611319565b60045461134f90919063ffffffff16565b504173ffffffffffffffffffffffffffffffffffffffff168273ffffffffffffffffffffffffffffffffffffffff161415610c16576109aa6001600660003373ffffffffffffffffffffffffffffffffffffffff1673ffffffffffffffffffffffffffffffffffffffff16815260200190815260200160002060009054906101000a900460ff1660ff1661134f90919063ffffffff16565b50600360009054906101000a900460ff1660ff16600660003373ffffffffffffffffffffffffffffffffffffffff1673ffffffffffffffffffffffffffffffffffffffff16815260200190815260200160002060009054906101000a900460ff1660ff161415610c11577f251bdb61db1db8d10ba877c91e7b9fc6a30b9d088dff8edf3131dac1b733a44933604051808273ffffffffffffffffffffffffffffffffffffffff1673ffffffffffffffffffffffffffffffffffffffff16815260200191505060405180910390a1600560003373ffffffffffffffffffffffffffffffffffffffff1673ffffffffffffffffffffffffffffffffffffffff1681526020019081526020016000206001018054806001018281610acb91906113c3565b916000526020600020900160004390919091505550600254600454101515610bab57610b44600454600560003373ffffffffffffffffffffffffffffffffffffffff1673ffffffffffffffffffffffffffffffffffffffff1681526020019081526020016000206000015461134f90919063ffffffff16565b5060006004819055506000600660003373ffffffffffffffffffffffffffffffffffffffff1673ffffffffffffffffffffffffffffffffffffffff16815260200190815260200160002060006101000a81548160ff021916908360ff160217905550610c10565b610c0e6001600660003373ffffffffffffffffffffffffffffffffffffffff1673ffffffffffffffffffffffffffffffffffffffff16815260200190815260200160002060009054906101000a900460ff1660ff1661130090919063ffffffff16565b505b5b610c70565b6000600660003373ffffffffffffffffffffffffffffffffffffffff1673ffffffffffffffffffffffffffffffffffffffff16815260200190815260200160002060006101000a81548160ff021916908360ff1602179055505b5050565b600060010160009054906101000a900473ffffffffffffffffffffffffffffffffffffffff1673ffffffffffffffffffffffffffffffffffffffff163373ffffffffffffffffffffffffffffffffffffffff16141515610cd357600080fd5b8060028190555050565b60056020528060005260406000206000915090508060000154908060020154905082565b6000600560003373ffffffffffffffffffffffffffffffffffffffff1673ffffffffffffffffffffffffffffffffffffffff168152602001908152602001600020600001549050600081141515610ddb576000600560003373ffffffffffffffffffffffffffffffffffffffff1673ffffffffffffffffffffffffffffffffffffffff168152602001908152602001600020600001819055503373ffffffffffffffffffffffffffffffffffffffff166108fc829081150290604051600060405180830381858888f193505050501515610dda57600080fd5b5b50565b6000600560003373ffffffffffffffffffffffffffffffffffffffff1673ffffffffffffffffffffffffffffffffffffffff16815260200190815260200160002060000154905090565b600060010160009054906101000a900473ffffffffffffffffffffffffffffffffffffffff1673ffffffffffffffffffffffffffffffffffffffff163373ffffffffffffffffffffffffffffffffffffffff16141515610e8757600080fd5b600060010160009054906101000a900473ffffffffffffffffffffffffffffffffffffffff1673ffffffffffffffffffffffffffffffffffffffff166108fc60008001549081150290604051600060405180830381858888f193505050501515610ef057600080fd5b60008060000181905550565b60025481565b6000600660003373ffffffffffffffffffffffffffffffffffffffff1673ffffffffffffffffffffffffffffffffffffffff16815260200190815260200160002060009054906101000a900460ff16905090565b6000600660008373ffffffffffffffffffffffffffffffffffffffff1673ffffffffffffffffffffffffffffffffffffffff16815260200190815260200160002060009054906101000a900460ff169050919050565b600360009054906101000a900460ff1681565b60045481565b60066020528060005260406000206000915054906101000a900460ff1681565b6000600454905090565b60008060000154908060010160009054906101000a900473ffffffffffffffffffffffffffffffffffffffff16905082565b6110296113ef565b600560008373ffffffffffffffffffffffffffffffffffffffff1673ffffffffffffffffffffffffffffffffffffffff1681526020019081526020016000206001018054806020026020016040519081016040528092919081815260200182805480156110b557602002820191906000526020600020905b8154815260200190600101908083116110a1575b50505050509050919050565b600060010160009054906101000a900473ffffffffffffffffffffffffffffffffffffffff1673ffffffffffffffffffffffffffffffffffffffff163373ffffffffffffffffffffffffffffffffffffffff1614151561112057600080fd5b80600060010160006101000a81548173ffffffffffffffffffffffffffffffffffffffff021916908373ffffffffffffffffffffffffffffffffffffffff16021790555050565b600360019054906101000a900460ff1681565b600360029054906101000a900460ff1681565b6111956113ef565b600560003373ffffffffffffffffffffffffffffffffffffffff1673ffffffffffffffffffffffffffffffffffffffff16815260200190815260200160002060010180548060200260200160405190810160405280929190818152602001828054801561122157602002820191906000526020600020905b81548152602001906001019080831161120d575b5050505050905090565b6000600560008373ffffffffffffffffffffffffffffffffffffffff1673ffffffffffffffffffffffffffffffffffffffff168152602001908152602001600020600001549050919050565b60008060000154905090565b600060010160009054906101000a900473ffffffffffffffffffffffffffffffffffffffff1673ffffffffffffffffffffffffffffffffffffffff163373ffffffffffffffffffffffffffffffffffffffff161415156112e257600080fd5b80600360006101000a81548160ff021916908360ff16021790555050565b600082821115151561130e57fe5b818303905092915050565b600061134761133e6113378560648781151561133157fe5b06611300565b606461136d565b8360ff16611388565b905092915050565b600080828401905083811015151561136357fe5b8091505092915050565b600080828481151561137b57fe5b0490508091505092915050565b600080600084141561139d57600091506113bc565b82840290508284828115156113ae57fe5b041415156113b857fe5b8091505b5092915050565b8154818355818115116113ea578183600052602060002091820191016113e99190611403565b5b505050565b602060405190810160405280600081525090565b61142591905b80821115611421576000816000905550600101611409565b5090565b905600a165627a7a723058205f7136b38b875b5aec7b908bb89f2884c6939ced66c004bb871bc87bafd1c8040029",
  "source": "pragma solidity ^0.4.19;\n\n/**\n * @title SafeMath\n * @dev Math operations with safety checks that throw on error\n */\nlibrary SafeMath {\n  function mul(uint256 a, uint256 b) internal pure returns (uint256) {\n    if (a == 0) {\n      return 0;\n    }\n    uint256 c = a * b;\n    assert(c / a == b);\n    return c;\n  }\n\n  function div(uint256 a, uint256 b) internal pure returns (uint256) {\n    // assert(b > 0); // Solidity automatically throws when dividing by 0\n    uint256 c = a / b;\n    // assert(a == b * c + a % b); // There is no case in which this doesn't hold\n    return c;\n  }\n\n  function sub(uint256 a, uint256 b) internal pure returns (uint256) {\n    assert(b <= a);\n    return a - b;\n  }\n\n  function add(uint256 a, uint256 b) internal pure returns (uint256) {\n    uint256 c = a + b;\n    assert(c >= a);\n    return c;\n  }\n}\n\ncontract TheNextBlock {\n\n    using SafeMath for uint256;\n    using SafeMath for uint8;\n\n    event BetReceived(address sender, uint256 value, address betOnMiner, address miner, uint256 balance);\n    event GivingBackTheRest(address sender, uint256 value, uint256 rest);\n    event Jackpot(address winner);\n    \n    struct Owner {\n        uint256 balance;\n        address addr;\n    }\n    \n    \n    Owner public owner;\n    uint256 public allowedBetAmount = 10000000000000000; // 0.01 ETH\n    uint8 public requiredPoints = 5;\n    uint8 public ownerProfitPercent = 10;\n    uint8 public prizePoolPercent = 90;\n    uint256 public prizePool = 0;\n    struct Player {\n        uint256 balance;\n        uint256[] wonBlocks;\n        uint256 lastBlock;\n    }\n    \n    mapping(address => Player) public playersStorage;\n    mapping(address => uint8) public playersPoints;\n    \n    modifier onlyOwner() {\n        require(msg.sender == owner.addr);\n        _;\n    }\n\n    modifier notLess() {\n        require(msg.value >= allowedBetAmount);\n        _;\n    }\n\n    modifier notMore() {\n        if(msg.value > allowedBetAmount) {\n\n            GivingBackTheRest(msg.sender, msg.value,  SafeMath.sub(msg.value, allowedBetAmount));\n            msg.sender.transfer( SafeMath.sub(msg.value, allowedBetAmount) );\n        }\n        _;\n    }\n    \n    modifier onlyOnce() {\n        Player storage player = playersStorage[msg.sender];\n        require(player.lastBlock != block.number);\n        player.lastBlock = block.number;\n        _;\n    }\n    \n    function safeGetPercent(uint256 amount, uint8 percent) private pure returns(uint256) {\n        return SafeMath.mul( SafeMath.div( SafeMath.sub(amount, amount%100), 100), percent);\n    }\n    \n    function TheNextBlock() public {\n        owner.addr = msg.sender;\n    }\n\n    function () public payable { }\n\n    function placeBet(address _miner) \n        public\n        payable\n        notLess\n        notMore\n        onlyOnce {\n            \n            BetReceived(msg.sender, msg.value, _miner, block.coinbase,  this.balance);\n\n            owner.balance.add(safeGetPercent(allowedBetAmount, ownerProfitPercent));\n            prizePool.add(safeGetPercent(allowedBetAmount, prizePoolPercent));\n\n            if(_miner == block.coinbase) {\n                \n                playersPoints[msg.sender].add(1);\n\n                if(playersPoints[msg.sender] == requiredPoints) {\n                    Jackpot(msg.sender);\n                    playersStorage[msg.sender].wonBlocks.push(block.number);\n\n                    if(prizePool >= allowedBetAmount) {\n                        playersStorage[msg.sender].balance.add(prizePool);\n                        prizePool = 0;\n                        playersPoints[msg.sender] = 0;\n                    } else {\n                        playersPoints[msg.sender].sub(1); // Unlucky player, he had a chanse to won this prize pool, but we cant manage transaction ordering :( \n                    }\n                }\n            } else {\n                playersPoints[msg.sender] = 0;\n            }\n    }\n\n    function getPlayersBalance(address playerAddr) public view returns(uint256) {\n        return playersStorage[playerAddr].balance;\n    }\n    \n    function getPlayersGuessCount(address playerAddr) public view returns(uint8) {\n        return playersPoints[playerAddr];\n    }\n    \n    function getPlayersWonBlocks(address playerAddr) public view returns(uint256[]) {\n        return playersStorage[playerAddr].wonBlocks;\n    }\n    \n    function getMyBalance() public view returns(uint256) {\n        return playersStorage[msg.sender].balance;\n    }\n    \n    function getMyGuessCount() public view returns(uint8) {\n        return playersPoints[msg.sender];\n    }\n    \n    function getMyWonBlocks() public view returns(uint256[]) {\n        return playersStorage[msg.sender].wonBlocks;\n    }\n    \n    function withdrawMyFunds() public {\n        uint256 balance = playersStorage[msg.sender].balance;\n        if(balance != 0) {\n            playersStorage[msg.sender].balance = 0;\n            msg.sender.transfer(balance);\n        }\n    }\n    \n    function withdrawOwnersFunds() public onlyOwner {\n        owner.addr.transfer(owner.balance);\n        owner.balance = 0;\n    }\n    \n    function getOwnersBalance() public view returns(uint256) {\n        return owner.balance;\n    }\n    \n    function getPrizePool() public view returns(uint256) {\n        return prizePool;\n    }\n    \n    function getBalance() public view returns(uint256) {\n        return this.balance;\n    }\n        \n    function changeOwner(address newOwner) public onlyOwner {\n        owner.addr = newOwner;\n    }\n\n    function changeAllowedBetAmount(uint256 newAmount) public onlyOwner {\n        allowedBetAmount = newAmount;\n    }\n\n    function changeRequiredPoints(uint8 newRequiredPoints) public onlyOwner {\n        requiredPoints = newRequiredPoints;\n    }\n\n}",
  "sourcePath": "/Users/achiko/Documents/thenextblock.github.io/contracts/TheNextBlock.sol",
  "compiler": {
    "name": "solc",
    "version": "0.4.19+commit.c4cbbb05.Emscripten.clang"
  },
  "schemaVersion": "1.0.1",
  "updatedAt": "2018-02-22T15:43:07.570Z"
}